:100000000C9434000C94AE060C94AE060C94AE0620
:100010000C94AE060C94AE060C94AE060C94AE0690
:100020000C94AE060C94AE060C94AE060C94AE0680
:100030000C94AE060C94AE060C94AE060C94AE0670
:100040000C94AE060C94AE060C94AE060C94AE0660
:100050000C94AE060C94AE060C94AE060C94AE0650
:100060000C94AE060C94AE0611241FBECFEFD8E060
:10007000DEBFCDBF0E9484040C943E00F894FFCFF5
:100080003A20000D0A00536F667420526573657440
:100090002E2E2E0D0A00436F6E6669677572616EB3
:1000A000646F2074656D706F72697A61646F7265D8
:1000B000732079206D6F64756C6163696F6E2E2E8D
:1000C0002E0D0A00526567697374726F7320636C3A
:1000D0006176652064657370756573206465206959
:1000E0006E69743A0D0A0056657273696F6E5265D7
:1000F00067005478436F6E74726F6C52656700547A
:100100007841534B526567004D6F646552656700D7
:10011000544D6F6465526567005450726573636136
:100120006C6572526567005452656C6F616452650C
:100130006748005452656C6F61645265674C0052A9
:1001400046436667526567000D0A3D3D3D20456E9A
:100150007669616E646F2052455141203D3D3D0DF1
:100160000A00436F6D6D49727152656720616E744C
:1001700065733A2000004649464F4C6576656C52DF
:10018000656720616E7465733A20004649464F44A6
:100190006174615265675B6573637269746F5D3A20
:1001A0002000436F6D6D49727152656720646573FD
:1001B000707520733A20004649464F4C6576656C51
:1001C00052656720646573707520733A200045722C
:1001D000726F725265673A200054696D656F75746D
:1001E00020524551412C207461726A657461206E01
:1001F0006F206465746563746164610D0A0049521F
:10020000512061637469766164612C206C6565724C
:10021000206461746F73204649464F0D0A004649B9
:10022000464F4C6576656C5265673A2000464946F4
:100230004F446174615265675B6C6569646F5D3AD8
:1002400020005461726A657461206465746563742A
:100250006164612120496E74656E74616E646F2003
:100260006C656572205549442E2E2E0D0A00546986
:100270006D656F757420416E7469636F6C6C697322
:10028000696F6E0D0A00554944206C6569646F3AC8
:0F02900020002000554944206C6569646F2100EF
:0D029F00526563696269646F3A20000A00CD
:0A02AC00307825303258000D0A00AA
:1002B6002F923F924F926F927F928F929F92AF9220
:1002C600BF92CF92DF92EF92FF920F931F93CF933D
:1002D600DF93CDB7DEB762970FB6F894DEBF0FBED9
:1002E600CDBF6C013A01862E7901FC01108617827A
:1002F600848181FFE7C19E012F5F3F4F3D872C8799
:10030600C901A0E8888B998BAA8B9FE3992EF301EC
:10031600849187FC8081882309F4D0C1482D9301FC
:100326002F5F3F4F4F4F853219F03901842E0AC097
:10033600F901849147FD808192E0690E711C811C50
:10034600853229F4B60190E00E94D304E0CFB12CA7
:1003560000E010E01032A0F48B3269F030F4803205
:1003660059F0833269F410612CC08D3239F0803334
:1003760039F4116026C01260146023C0186021C0D1
:1003860017FD29C090ED980F9A3078F416FF06C035
:10039600AAE0BA9E900D1124B92E13C0EAE00E9F72
:1003A600900D1124092F10620CC08E3221F416FD17
:1003B60085C1106406C08C3611F4106802C08836F8
:1003C60051F4F301849187FC8081FFEF6F1A7F0A55
:1003D6008F0A8111BFCF982F9F7D9554933028F4B3
:1003E60024E0E20EF11C99820FC0833631F0833788
:1003F60091F0833509F063C027C0F70180818983B6
:1004060097012E5F3F4F7901288839884A88AA24A8
:10041600A394B12C17C0A7014D5F5F4F5F874E872E
:10042600F70120803180428016FF03C04B2D50E03B
:1004360002C04FEF5FEF842DB1010E94CE055C0133
:10044600EE84FF841F7718C097012D5F3F4F3F87CB
:100456002E87F70120803180428016FF03C04B2D86
:1004660050E002C04FEF5FEF842DB1010E94CE0530
:100476005C011068EE84FF8413FD1DC0802F90E0A0
:10048600A816B906C0F4B60180E290E00E94D30433
:100496000150F4CFF101849147FC8081FFEF2F1AC0
:1004A6003F0A4F0AB60190E00E94D30401110150A1
:1004B60021E0A21AB108A114B10461F7F5C084368F
:1004C60011F0893671F5F70117FF08C06081718157
:1004D6008281938197012C5F3F4F09C060817181B2
:1004E600072E000C880B990B97012E5F3F4F790161
:1004F6001F76312E97FF0AC090958095709561956D
:100506007F4F8F4F9F4F312F3068332E2AE030E0D8
:10051600AE014F5F5F4F0E942604482E4C85441A59
:100526004AC0853729F41F7EA12E2AE030E025C077
:10053600512F597FA52E8F36C1F018F4883579F0E2
:10054600BDC0803719F0883721F0B8C0852F80618B
:10055600A82EA4FE0DC09A2D9460A92E09C014FFE2
:100566000AC0A52FA660AA2E06C028E030E005C066
:1005760020E130E002C020E132E0F701A7FE08C02A
:100586006081718182819381A7014C5F5F4F07C0B3
:100596006081718180E090E0A7014E5F5F4F7A0134
:1005A600AE014F5F5F4F0E942604482E5C85451AB8
:1005B6008A2D8F77382E36FE0DC0932D9E7FA92E5D
:1005C6004B1458F434FE0BC032FC09C0A32DAE7E8A
:1005D600AA2E05C0142DA32C03C0142D01C01B2D5B
:1005E600A4FE0EC0FE01E40DF11D8081803321F4CE
:1005F600EA2DE97EAE2E08C0A2FE05C01E5F04C02D
:100606008A2D867809F01F5FA3FC11C0A0FE06C0E4
:10061600101788F4040DB02EB11A0EC0101760F42E
:10062600B60180E290E00E94D3041F5FF7CF101757
:1006360018F4011B02C0B42C00E0A4FE10C0B601E1
:1006460080E390E00E94D304A2FE17C0A1FC03C081
:1006560088E790E002C088E590E0B6010CC08A2DDC
:10066600867859F0A1FE02C08BE201C080E2A7FCA9
:100676008DE2B60190E00E94D3044B1438F4B60123
:1006860080E390E00E94D304BA94F7CF4A94E1E065
:10069600F0E0EC0FFD1FE40DF11D8081B60190E046
:1006A6000E94D3044110F2CF002309F430CEB601E4
:1006B60080E290E00E94D3040150F6CFF6018781D4
:1006C600908502C08FEF9FEF62960FB6F894DEBF5B
:1006D6000FBECDBFDF91CF911F910F91FF90EF908D
:1006E600DF90CF90BF90AF909F908F907F906F904C
:0806F6004F903F902F900895F2
:1006FE000F931F93CF93DF938C0167E08DE00E94E1
:10070E0033066FE784E00E94330660E88AE00E94B9
:10071E00330668E471E080E00E941D06C0E005C06B
:10072E0066E289E00E943306CF5FCC23C9F36CE00A
:10073E0081E00E94330660E88DE00E947D06C8EEDF
:10074E00D3E084E00E9448062197807311F420972D
:10075E00C1F760E88DE00E946E06CD2B59F469ED6D
:10076E0071E080E00E941D0680E1F80111928A95E9
:10077E00E9F760C08AE00E944806D82FC0E004C0A6
:10078E0089E00E944806CF5FCD17D0F3DD2309F430
:10079E0051C062E472E080E00E941D0660E08DE0D0
:1007AE000E9433066FE784E00E94330660E88AE019
:1007BE000E94330663E989E00E94330660E289E015
:1007CE000E9433066CE081E00E94330660E88DE003
:1007DE000E947D06C8EED3E084E00E944806219771
:1007EE00807311F42097C1F760E88DE00E946E06C9
:1007FE00CD2B31F46EE672E080E00E941D061AC029
:10080E008AE00E944806D82F64E972E080E00E94D8
:10081E001D06C0E008C089E00E944806F801EC0FF2
:10082E00F11D8083CF5FCD17B0F363E870E080E0F9
:0E083E000E941D06DF91CF911F910F9108952A
:10084C00FA01AA27283051F1203181F1E8946F93F5
:10085C006E7F6E5F7F4F8F4F9F4FAF4FB1E03ED09B
:10086C00B4E03CD0670F781F891F9A1FA11D680F39
:10087C00791F8A1F911DA11D6A0F711D811D911D6C
:10088C00A11D20D009F468943F912AE0269F1124E1
:10089C003019305D3193DEF6CF010895462F477045
:1008AC00405D4193B3E00FD0C9F7F6CF462F4F70A0
:1008BC00405D4A3318F0495D31FD4052419302D0FE
:1008CC00A9F7EACFB4E0A6959795879577956795A4
:1008DC00BA95C9F700976105710508959B01AC01A4
:1008EC000A2E06945795479537952795BA95C9F7CB
:0C08FC00620F731F841F951FA01D08953C
:10090800CF93DF93CDB7DEB72A970FB6F894DEBF43
:100918000FBECDBF87E690E00E9496060E948B0628
:100928000E9404060E940F052FEF81EE94E02150EB
:1009380080409040E1F700C00000FE0131968AE057
:10094800DF011D928A95E9F7CE0101960E947F0387
:10095800BFEF29E688E1B15020408040E1F700C0B0
:1009680000006FE972E080E00E941D0689818823FB
:1009780039F0BE016F5F7F4F80E845E00E9469054E
:100988006AEA72E080E00E941D069FEFA9E6B8E1DE
:0E0998009150A040B040E1F700C00000D5CF64
:1009A6000F931F93CF93DF93FB01248121FD03C097
:1009B6008FEF9FEF2CC022FF16C0478150852581FF
:1009C60036814217530744F4A081B1819D012F5F00
:1009D6003F4F318320838C93278130852F5F3F4F94
:1009E6003087278314C08B01EC01FB010184F2855B
:1009F600E02D0995892BE1F6D80117968D919C91EA
:100A06001897019618969C938E931797CE01DF91AF
:080A1600CF911F910F9108958B
:100A1E000E945B0666E970E080E00E941D066DE8AC
:100A2E008AE20E9433066EE38BE20E9433066EE189
:100A3E008DE20E94330660E08CE20E94330660E491
:100A4E0085E10E9433066DE381E10E9433066FE774
:100A5E0086E20E94330663E884E10E9433068FE14A
:0C0A6E009EE40197F1F700C0000008951D
:100A7A000F931F93CF93DF9300D000D000D0CDB750
:100A8A00DEB71F928F938CEA92E0A0E0AF939F9318
:100A9A008F938E010F5F1F4F1F930F930E948F0535
:100AAA00B80180E80E941D060FB6F894DEBF0FBE9B
:100ABA00CDBF26960FB6F894DEBF0FBECDBFDF912D
:080ACA00CF911F910F910895D7
:100AD200CF92DF92EF92CF93DF936B01E82ED42F68
:100AE200C0E00FC0AE2DC6018C0F911DA11DFC01EF
:100AF2008491A7FD80810E943D0580E20E94A106AB
:100B0200CF5FCD1778F363EB72E080E00E941D06A1
:0C0B1200DF91CF91EF90DF90CF9008951D
:100B1E00AFE0B0E0E5E9F5E00C94C0050E891F8961
:100B2E0086E08D831A8309838FEF9FE79F838E83E1
:100B3E009E01255E3F4F488D598D6A8DCE010196DF
:100B4E000E945B01E885F985E00FF11F10822F9658
:060B5E00E4E00C94F70531
:100B64002F923F924F925F926F927F928F929F92B9
:100B7400AF92BF92CF92DF92EF92FF920F931F93A7
:100B8400CF93DF93CDB7DEB7CA1BDB0B0FB6F89458
:080B9400DEBF0FBECDBF0994C6
:100B9C00CF92DF92EF926B01E82EA82FCB0141157B
:100BAC00510531F48C199D09EF90DF90CF90089589
:100BBC00FC012491A7FD20812223A1F30196A11D04
:060BCC0041505109ECCF7D
:100BD2002A88398848885F846E847D848C849B84CB
:100BE200AA84B984C884DF80EE80FD800C811B81D9
:100BF200AA81B981CE0FD11D0FB6F894DEBF0FBE08
:060C0200CDBFED010895D5
:100C080084B1826084B985B18D7F85B98FE39CE911
:100C18000197F1F700C0000085B1826085B99FEFA8
:100C280020E782E0915020408040E1F700C00000BA
:020C380008951D
:100C3A00CF92DF92EF926B01E82E06C09FEFC91A9E
:100C4A00D90AE90A0E94A106F6018491E7FC80818B
:0C0C5A008111F4CFEF90DF90CF9008954F
:100C6600CF93C62F95B19B7F95B990E0880F991FBA
:100C76008E7799270E94A8068C2F90E00E94A806DE
:0A0C860085B1846085B9CF9108950F
:100C900095B19B7F95B990E0880F991F8E77992722
:100CA00080680E94A80680E090E00E94A80695B1A6
:060CB000946095B908955F
:100CB60066E870E080E00E941D0660E181E00E9427
:100CC60033062FEF80E792E0215080409040E1F715
:060CD60000C000000895BB
:100CDC00CF93DF93D82FC62F0E944806C0956C2F58
:0E0CEC0068238D2F0E943306DF91CF9108956B
:100CFA00CF93DF93D82FC62F0E944806682F6C2BFC
:0C0D0A008D2F0E943306DF91CF910895D9
:100D160084B18C6284B984B18F7E84B980E58CBD40
:060D260081E08DBD08957F
:100D2C009093C5008093C40088E18093C10086E055
:060D3C008093C20008953F
:0E0D42009091C00095FFFCCF8093C6000895ED
:0C0D50008EBD0DB407FEFDCF8EB50895DA
:040D5C000C940000F3
:00000001FF
